{
  "contractName": "SkillFunding",
  "abi": [
    {
      "anonymous": false,
      "inputs": [
        {
          "indexed": true,
          "internalType": "uint256",
          "name": "date",
          "type": "uint256"
        },
        {
          "indexed": true,
          "internalType": "address",
          "name": "sender",
          "type": "address"
        },
        {
          "indexed": false,
          "internalType": "uint256",
          "name": "value",
          "type": "uint256"
        }
      ],
      "name": "FallbackTriggered",
      "type": "event"
    },
    {
      "anonymous": false,
      "inputs": [
        {
          "indexed": true,
          "internalType": "address",
          "name": "previousOwner",
          "type": "address"
        },
        {
          "indexed": true,
          "internalType": "address",
          "name": "newOwner",
          "type": "address"
        }
      ],
      "name": "OwnershipTransferred",
      "type": "event"
    },
    {
      "stateMutability": "payable",
      "type": "fallback"
    },
    {
      "inputs": [
        {
          "internalType": "uint256",
          "name": "",
          "type": "uint256"
        }
      ],
      "name": "campaigns",
      "outputs": [
        {
          "internalType": "address payable",
          "name": "beneficiary",
          "type": "address"
        },
        {
          "internalType": "uint256",
          "name": "fundingGoal",
          "type": "uint256"
        },
        {
          "internalType": "uint256",
          "name": "numUsers",
          "type": "uint256"
        },
        {
          "internalType": "uint256",
          "name": "amount",
          "type": "uint256"
        }
      ],
      "stateMutability": "view",
      "type": "function"
    },
    {
      "inputs": [],
      "name": "numCampaigns",
      "outputs": [
        {
          "internalType": "uint256",
          "name": "",
          "type": "uint256"
        }
      ],
      "stateMutability": "view",
      "type": "function"
    },
    {
      "inputs": [],
      "name": "owner",
      "outputs": [
        {
          "internalType": "address",
          "name": "",
          "type": "address"
        }
      ],
      "stateMutability": "view",
      "type": "function"
    },
    {
      "inputs": [],
      "name": "renounceOwnership",
      "outputs": [],
      "stateMutability": "nonpayable",
      "type": "function"
    },
    {
      "inputs": [
        {
          "internalType": "address",
          "name": "newOwner",
          "type": "address"
        }
      ],
      "name": "transferOwnership",
      "outputs": [],
      "stateMutability": "nonpayable",
      "type": "function"
    },
    {
      "inputs": [
        {
          "internalType": "address payable",
          "name": "beneficiary",
          "type": "address"
        },
        {
          "internalType": "uint256",
          "name": "goal",
          "type": "uint256"
        }
      ],
      "name": "newCampaign",
      "outputs": [
        {
          "internalType": "uint256",
          "name": "campaignID",
          "type": "uint256"
        }
      ],
      "stateMutability": "nonpayable",
      "type": "function"
    },
    {
      "inputs": [
        {
          "internalType": "uint256",
          "name": "campaignID",
          "type": "uint256"
        }
      ],
      "name": "contribute",
      "outputs": [],
      "stateMutability": "payable",
      "type": "function"
    },
    {
      "inputs": [
        {
          "internalType": "uint256",
          "name": "campaignID",
          "type": "uint256"
        }
      ],
      "name": "checkGoalReached",
      "outputs": [
        {
          "internalType": "bool",
          "name": "reached",
          "type": "bool"
        }
      ],
      "stateMutability": "nonpayable",
      "type": "function"
    }
  ],
  "bytecode": "0x608060405260006100146100b760201b60201c565b9050806000806101000a81548173ffffffffffffffffffffffffffffffffffffffff021916908373ffffffffffffffffffffffffffffffffffffffff1602179055508073ffffffffffffffffffffffffffffffffffffffff16600073ffffffffffffffffffffffffffffffffffffffff167f8be0079c531659141344cd1fd0a4f28419497f9722a3daafe3b4186f6b6457e060405160405180910390a3506100bf565b600033905090565b61096b806100ce6000396000f3fe60806040526004361061007f5760003560e01c80638da5cb5b1161004e5780638da5cb5b146101f6578063c1cbbca71461024d578063f2fde38b1461027b578063f7572cf3146102cc57610080565b8063141961bc146100d15780632c0f7b6f146101615780635b2329d41461018c578063715018a6146101df57610080565b5b3373ffffffffffffffffffffffffffffffffffffffff16427fb2a08a53341b8f03217245fa02bdedc8418d23624dff5502143eac1ae6a90c43346040518082815260200191505060405180910390a3005b3480156100dd57600080fd5b5061010a600480360360208110156100f457600080fd5b810190808035906020019092919050505061033b565b604051808573ffffffffffffffffffffffffffffffffffffffff1673ffffffffffffffffffffffffffffffffffffffff16815260200184815260200183815260200182815260200194505050505060405180910390f35b34801561016d57600080fd5b5061017661038b565b6040518082815260200191505060405180910390f35b34801561019857600080fd5b506101c5600480360360208110156101af57600080fd5b8101908080359060200190929190505050610391565b604051808215151515815260200191505060405180910390f35b3480156101eb57600080fd5b506101f461044d565b005b34801561020257600080fd5b5061020b6105d5565b604051808273ffffffffffffffffffffffffffffffffffffffff1673ffffffffffffffffffffffffffffffffffffffff16815260200191505060405180910390f35b6102796004803603602081101561026357600080fd5b81019080803590602001909291905050506105fe565b005b34801561028757600080fd5b506102ca6004803603602081101561029e57600080fd5b81019080803573ffffffffffffffffffffffffffffffffffffffff16906020019092919050505061062b565b005b3480156102d857600080fd5b50610325600480360360408110156102ef57600080fd5b81019080803573ffffffffffffffffffffffffffffffffffffffff16906020019092919080359060200190929190505050610838565b6040518082815260200191505060405180910390f35b60026020528060005260406000206000915090508060000160009054906101000a900473ffffffffffffffffffffffffffffffffffffffff16908060010154908060020154908060030154905084565b60015481565b6000806002600084815260200190815260200160002090508060010154816003015410156103c3576000915050610448565b600081600301549050600082600301819055508160000160009054906101000a900473ffffffffffffffffffffffffffffffffffffffff1673ffffffffffffffffffffffffffffffffffffffff166108fc829081150290604051600060405180830381858888f19350505050158015610440573d6000803e3d6000fd5b506001925050505b919050565b610455610907565b73ffffffffffffffffffffffffffffffffffffffff166000809054906101000a900473ffffffffffffffffffffffffffffffffffffffff1673ffffffffffffffffffffffffffffffffffffffff1614610516576040517f08c379a00000000000000000000000000000000000000000000000000000000081526004018080602001828103825260208152602001807f4f776e61626c653a2063616c6c6572206973206e6f7420746865206f776e657281525060200191505060405180910390fd5b600073ffffffffffffffffffffffffffffffffffffffff166000809054906101000a900473ffffffffffffffffffffffffffffffffffffffff1673ffffffffffffffffffffffffffffffffffffffff167f8be0079c531659141344cd1fd0a4f28419497f9722a3daafe3b4186f6b6457e060405160405180910390a360008060006101000a81548173ffffffffffffffffffffffffffffffffffffffff021916908373ffffffffffffffffffffffffffffffffffffffff160217905550565b60008060009054906101000a900473ffffffffffffffffffffffffffffffffffffffff16905090565b60006002600083815260200190815260200160002090503481600301600082825401925050819055505050565b610633610907565b73ffffffffffffffffffffffffffffffffffffffff166000809054906101000a900473ffffffffffffffffffffffffffffffffffffffff1673ffffffffffffffffffffffffffffffffffffffff16146106f4576040517f08c379a00000000000000000000000000000000000000000000000000000000081526004018080602001828103825260208152602001807f4f776e61626c653a2063616c6c6572206973206e6f7420746865206f776e657281525060200191505060405180910390fd5b600073ffffffffffffffffffffffffffffffffffffffff168173ffffffffffffffffffffffffffffffffffffffff16141561077a576040517f08c379a00000000000000000000000000000000000000000000000000000000081526004018080602001828103825260268152602001806109106026913960400191505060405180910390fd5b8073ffffffffffffffffffffffffffffffffffffffff166000809054906101000a900473ffffffffffffffffffffffffffffffffffffffff1673ffffffffffffffffffffffffffffffffffffffff167f8be0079c531659141344cd1fd0a4f28419497f9722a3daafe3b4186f6b6457e060405160405180910390a3806000806101000a81548173ffffffffffffffffffffffffffffffffffffffff021916908373ffffffffffffffffffffffffffffffffffffffff16021790555050565b60006001600081548092919060010191905055905060405180608001604052808473ffffffffffffffffffffffffffffffffffffffff1681526020018381526020016000815260200160008152506002600083815260200190815260200160002060008201518160000160006101000a81548173ffffffffffffffffffffffffffffffffffffffff021916908373ffffffffffffffffffffffffffffffffffffffff16021790555060208201518160010155604082015181600201556060820151816003015590505092915050565b60003390509056fe4f776e61626c653a206e6577206f776e657220697320746865207a65726f2061646472657373a26469706673582212209cc99661bf2fb5aad678039f4c9264b83a5817097ecb24a1d1cedbfe607d4aa864736f6c63430006020033",
  "source": "// SPDX-License-Identifier: GPL-3.0\npragma solidity >=0.6.0;\n\n/* \n    Import Ownable from the OpenZeppelin Contracts library\n*/\nimport \"@openzeppelin/contracts/access/Ownable.sol\";\n\n/* \n    Import UserRegister for user details\n*/\nimport \"./UserRegister.sol\";\n\n/* \n    @title Is used to create a Skill Campaign\n    @author ab64dev\n    @dev Contract still under development.\n*/\n contract SkillFunding is Ownable{\n\n    /* \n        @title Store details for a skill campaign with Beneficiary details, \n        users count that beneficiary is willing to sponsor, number of users registred, ether amount, enrolled user details\n    */\n    struct Campaign {\n        address payable beneficiary;\n        // string campaignName;\n        // bool isPublicCampaign;\n        uint fundingGoal;\n        uint numUsers;\n        uint amount;\n        mapping (uint => UserRegister.User) enrolledUsers;\n    }\n\n    /* \n        campaign identifier\n    */\n    uint public numCampaigns;\n\n    /* \n        list of all campaigns (public and private)\n    */\n    mapping (uint => Campaign) public campaigns;\n\n    /* \n        Create event to indicate Fallback has been triggered\n    */\n    event FallbackTriggered(uint indexed date, address indexed sender, uint value);\n\n    /* \n        @notice Beneficiary to create a new campaign\n        @param Beneficiary address\n        @param number of users who will be part of the campaign\n        @return campaign identifier\n    */\n    function newCampaign(address payable beneficiary, uint goal) public returns (uint campaignID) {\n        campaignID = numCampaigns++; // campaignID is return variable\n        // Creates new struct and saves in storage. We leave out the mapping type.\n        campaigns[campaignID] = Campaign(beneficiary, goal, 0, 0);\n    }\n\n    /* \n        fallback implementation for errored transactions\n    */\n    fallback() external payable {\n        emit FallbackTriggered(now, msg.sender, msg.value);\n    }\n\n    /* \n        @notice Contribute ether to the campaign\n        @param capmpaign identifier\n    */\n    function contribute(uint campaignID) public payable {\n        Campaign storage c = campaigns[campaignID];\n        c.amount += msg.value;\n    }\n\n    /* \n        @notice Check if enough users have registered with the campaign and if enough funding is available\n        @param capmpaign identifier\n        @return status of campaign\n    */\n    function checkGoalReached(uint campaignID) public returns (bool reached) {\n        Campaign storage c = campaigns[campaignID];\n        if (c.amount < c.fundingGoal)\n            return false;\n        uint amount = c.amount;\n        c.amount = 0;\n        c.beneficiary.transfer(amount);\n        return true;\n    }\n\n }",
  "sourcePath": "/home/abharana/truffle-final-project/contracts/SkillFunding.sol",
  "compiler": {
    "name": "solc",
    "version": "0.6.2+commit.bacdbe57.Emscripten.clang"
  },
  "schemaVersion": "3.2.5",
  "updatedAt": "2020-12-14T00:40:36.895Z",
  "devdoc": {
    "methods": {
      "owner()": {
        "details": "Returns the address of the current owner."
      },
      "renounceOwnership()": {
        "details": "Leaves the contract without owner. It will not be possible to call `onlyOwner` functions anymore. Can only be called by the current owner.     * NOTE: Renouncing ownership will leave the contract without an owner, thereby removing any functionality that is only available to the owner."
      },
      "transferOwnership(address)": {
        "details": "Transfers ownership of the contract to a new account (`newOwner`). Can only be called by the current owner."
      }
    }
  },
  "userdoc": {
    "methods": {}
  }
}