{
  "contractName": "SkillEvaluation",
  "abi": [
    {
      "inputs": [
        {
          "internalType": "address",
          "name": "userRegisterAddress",
          "type": "address"
        }
      ],
      "stateMutability": "nonpayable",
      "type": "constructor"
    },
    {
      "anonymous": false,
      "inputs": [
        {
          "indexed": true,
          "internalType": "uint256",
          "name": "skillId",
          "type": "uint256"
        }
      ],
      "name": "skillCertified",
      "type": "event"
    },
    {
      "anonymous": false,
      "inputs": [
        {
          "indexed": true,
          "internalType": "uint256",
          "name": "skillId",
          "type": "uint256"
        }
      ],
      "name": "skillCreated",
      "type": "event"
    },
    {
      "inputs": [
        {
          "internalType": "uint256",
          "name": "",
          "type": "uint256"
        }
      ],
      "name": "skill",
      "outputs": [
        {
          "internalType": "uint256",
          "name": "id",
          "type": "uint256"
        },
        {
          "internalType": "string",
          "name": "name",
          "type": "string"
        },
        {
          "internalType": "enum SkillEvaluation.Category",
          "name": "category",
          "type": "uint8"
        },
        {
          "internalType": "uint8",
          "name": "rating",
          "type": "uint8"
        },
        {
          "internalType": "enum SkillEvaluation.State",
          "name": "state",
          "type": "uint8"
        },
        {
          "internalType": "address",
          "name": "skilledPerson",
          "type": "address"
        },
        {
          "internalType": "uint256",
          "name": "noOfValidations",
          "type": "uint256"
        }
      ],
      "stateMutability": "view",
      "type": "function",
      "constant": true
    },
    {
      "inputs": [
        {
          "internalType": "string",
          "name": "_skillName",
          "type": "string"
        },
        {
          "internalType": "enum SkillEvaluation.Category",
          "name": "_skillCategory",
          "type": "uint8"
        }
      ],
      "name": "createSkill",
      "outputs": [
        {
          "internalType": "uint256",
          "name": "",
          "type": "uint256"
        }
      ],
      "stateMutability": "nonpayable",
      "type": "function"
    },
    {
      "inputs": [
        {
          "internalType": "uint256",
          "name": "_skillId",
          "type": "uint256"
        },
        {
          "internalType": "uint8",
          "name": "_rating",
          "type": "uint8"
        },
        {
          "internalType": "enum SkillEvaluation.Category",
          "name": "_category",
          "type": "uint8"
        }
      ],
      "name": "certifySkill",
      "outputs": [
        {
          "internalType": "bool",
          "name": "",
          "type": "bool"
        }
      ],
      "stateMutability": "nonpayable",
      "type": "function"
    },
    {
      "inputs": [
        {
          "internalType": "uint256",
          "name": "_skillId",
          "type": "uint256"
        }
      ],
      "name": "getSkillIssuers",
      "outputs": [
        {
          "internalType": "address[]",
          "name": "",
          "type": "address[]"
        }
      ],
      "stateMutability": "view",
      "type": "function",
      "constant": true
    }
  ],
  "bytecode": "0x608060405234801561001057600080fd5b50604051610c77380380610c778339818101604052602081101561003357600080fd5b810190808051906020019092919050505033600360006101000a81548173ffffffffffffffffffffffffffffffffffffffff021916908373ffffffffffffffffffffffffffffffffffffffff1602179055506000600281905550806000806101000a81548173ffffffffffffffffffffffffffffffffffffffff021916908373ffffffffffffffffffffffffffffffffffffffff16021790555050610b9a806100dd6000396000f3fe608060405234801561001057600080fd5b506004361061004c5760003560e01c8063188c1db2146100515780638395f61d146100b1578063b41cf8aa14610134578063d9ef545414610210575b600080fd5b6100976004803603606081101561006757600080fd5b8101908080359060200190929190803560ff169060200190929190803560ff16906020019092919050505061032f565b604051808215151515815260200191505060405180910390f35b6100dd600480360360208110156100c757600080fd5b81019080803590602001909291905050506106d5565b6040518080602001828103825283818151815260200191508051906020019060200280838360005b83811015610120578082015181840152602081019050610105565b505050509050019250505060405180910390f35b6101fa6004803603604081101561014a57600080fd5b810190808035906020019064010000000081111561016757600080fd5b82018360208201111561017957600080fd5b8035906020019184600183028401116401000000008311171561019b57600080fd5b91908080601f016020809104026020016040519081016040528093929190818152602001838380828437600081840152601f19601f820116905080830192505050505050509192919290803560ff169060200190929190505050610801565b6040518082815260200191505060405180910390f35b61023c6004803603602081101561022657600080fd5b810190808035906020019092919050505061097c565b604051808881526020018060200187600481111561025657fe5b60ff1681526020018660ff1660ff16815260200185600381111561027657fe5b60ff1681526020018473ffffffffffffffffffffffffffffffffffffffff1673ffffffffffffffffffffffffffffffffffffffff168152602001838152602001828103825288818151815260200191508051906020019080838360005b838110156102ee5780820151818401526020810190506102d3565b50505050905090810190601f16801561031b5780820380516001836020036101000a031916815260200191505b509850505050505050505060405180910390f35b60006001600085815260200190815260200160002060020160039054906101000a900473ffffffffffffffffffffffffffffffffffffffff163373ffffffffffffffffffffffffffffffffffffffff168173ffffffffffffffffffffffffffffffffffffffff1614156103ed576040517f08c379a0000000000000000000000000000000000000000000000000000000008152600401808060200182810382526022815260200180610b436022913960400191505060405180910390fd5b847fa50043440daa273101c3206ce1a57874e062cdd94f001baf45909d25cbc9185160405160405180910390a2836001600087815260200190815260200160002060020160016101000a81548160ff021916908360ff160217905550826001600087815260200190815260200160002060020160006101000a81548160ff0219169083600481111561047b57fe5b021790555060016000868152602001908152602001600020600301339080600181540180825580915050600190039060005260206000200160009091909190916101000a81548173ffffffffffffffffffffffffffffffffffffffff021916908373ffffffffffffffffffffffffffffffffffffffff1602179055506001600381111561050457fe5b6001600087815260200190815260200160002060020160029054906101000a900460ff16600381111561053357fe5b14156106905760026001600087815260200190815260200160002060020160026101000a81548160ff0219169083600381111561056c57fe5b02179055506000809054906101000a900473ffffffffffffffffffffffffffffffffffffffff1673ffffffffffffffffffffffffffffffffffffffff16635a9f36a56001600088815260200190815260200160002060020160039054906101000a900473ffffffffffffffffffffffffffffffffffffffff16876040518363ffffffff1660e01b8152600401808373ffffffffffffffffffffffffffffffffffffffff1673ffffffffffffffffffffffffffffffffffffffff16815260200182815260200192505050602060405180830381600087803b15801561064f57600080fd5b505af1158015610663573d6000803e3d6000fd5b505050506040513d602081101561067957600080fd5b8101908080519060200190929190505050506106c9565b60036001600087815260200190815260200160002060020160026101000a81548160ff021916908360038111156106c357fe5b02179055505b60019150509392505050565b60608060016000848152602001908152602001600020600301805490506040519080825280602002602001820160405280156107205781602001602082028038833980820191505090505b509050600080905060008090505b60016000868152602001908152602001600020600301805490508110156107f65760016000868152602001908152602001600020600301818154811061077057fe5b9060005260206000200160009054906101000a900473ffffffffffffffffffffffffffffffffffffffff168383815181106107a757fe5b602002602001019073ffffffffffffffffffffffffffffffffffffffff16908173ffffffffffffffffffffffffffffffffffffffff16815250508180600101925050808060010191505061072e565b508192505050919050565b60006002547f855a0b1a3f0e1c1afdb5d887e324f83dd374c801d639f05670a6295301bdf47b60405160405180910390a26002546001600060025481526020019081526020016000206000018190555082600160006002548152602001908152602001600020600101908051906020019061087d929190610a9d565b508160016000600254815260200190815260200160002060020160006101000a81548160ff021916908360048111156108b257fe5b02179055503360016000600254815260200190815260200160002060020160036101000a81548173ffffffffffffffffffffffffffffffffffffffff021916908373ffffffffffffffffffffffffffffffffffffffff1602179055506000600160006002548152602001908152602001600020600401819055506001806000600254815260200190815260200160002060020160026101000a81548160ff0219169083600381111561096057fe5b0217905550600160025401600281905550600254905092915050565b6001602052806000526040600020600091509050806000015490806001018054600181600116156101000203166002900480601f016020809104026020016040519081016040528092919081815260200182805460018160011615610100020316600290048015610a2e5780601f10610a0357610100808354040283529160200191610a2e565b820191906000526020600020905b815481529060010190602001808311610a1157829003601f168201915b5050505050908060020160009054906101000a900460ff16908060020160019054906101000a900460ff16908060020160029054906101000a900460ff16908060020160039054906101000a900473ffffffffffffffffffffffffffffffffffffffff16908060040154905087565b828054600181600116156101000203166002900490600052602060002090601f016020900481019282601f10610ade57805160ff1916838001178555610b0c565b82800160010185558215610b0c579182015b82811115610b0b578251825591602001919060010190610af0565b5b509050610b199190610b1d565b5090565b610b3f91905b80821115610b3b576000816000905550600101610b23565b5090565b9056fe536b696c6c206f776e65722063616e6e6f7420636572746966792068696d73656c66a264697066735822122059ce0d5cdb0068862ec0de68c1de0468189e1a40b38427f795065778f385ddb264736f6c63430006020033",
  "source": "// SPDX-License-Identifier: GPL-3.0\r\npragma solidity >=0.6.0;\r\n\r\n/* \r\n    Import UserRegister contract to associate User with a skill\r\n*/\r\nimport \"./UserRegister.sol\";\r\n\r\n/* \r\n    Import SafeMath from the OpenZeppelin Contracts library for addressing security vulnerabilities\r\n*/\r\nimport \"@openzeppelin/contracts/math/SafeMath.sol\";\r\n\r\n/* @title Create and certify user's skill with all relevant details\r\n   @author ab64dev\r\n   @dev All function calls are currently implemented without side effects\r\n*/\r\ncontract SkillEvaluation {\r\n\r\n    /// using SafeMath to address issues with Arithmetic Over/Under flows for uint datatypes \r\n    using SafeMath for uint8;\r\n    using SafeMath for uint256;\r\n\r\n    /* \r\n        @notice Category identifies all possible Skill groupings considered for holistic growth\r\n        Creative\r\n        Social\r\n        Physical\r\n        Cognitive\r\n        Emotional\r\n    */\r\n    enum Category { Creative, Social, Physical, Cognitive, Emotional }\r\n\r\n    /* \r\n        @notice Captures different states that the Skill will transition into in order\r\n        NEW - Default state when the contract is initialized.\r\n        CREATED - user account has been associated with the contract\r\n        CERTIFIED - user skill has been certified by a skill certifier\r\n        RECERTIFIED - user skill has been certified more than once\r\n    */\r\n    enum State { NEW, CREATED, CERTIFIED, RECERTIFIED }\r\n    \r\n    /*\r\n        Skill object\r\n        stores skill identifier(auto incremented), \r\n        skill name, skill Category, skill rating, skill state, skill creator and skill issuer details\r\n    */\r\n    struct Skill {\r\n        uint256 id;\r\n        string name;\r\n        Category category;\r\n        uint8 rating;\r\n        State state;\r\n        address skilledPerson;   // address of the skilled user\r\n        address[] skillIssuers;  // array of account addresses who have issued the skill\r\n        uint256 noOfValidations;\r\n    }\r\n\r\n    /*\r\n        User Register contract for retreiving user name\r\n    */\r\n    UserRegister userRegisterContract;\r\n\r\n    /*\r\n        list of skills with skill identifer as keys\r\n    */\r\n    mapping (uint256 => Skill) public skill;\r\n\r\n    /*\r\n        Skill identifier\r\n    */\r\n    uint256 skillId;\r\n\r\n    /*\r\n        Skill owner\r\n    */\r\n    address owner;\r\n\r\n    /* \r\n        @notice Create event to publish skill creation event\r\n        @param skill identifier\r\n    */\r\n    event skillCreated(uint256 indexed skillId);\r\n\r\n    /* \r\n        @notice Create event to publish skill certification event\r\n        @param skill identifier\r\n    */\r\n    event skillCertified(uint256 indexed skillId);\r\n\r\n    /*\r\n        VerifyIssuer should require that the address passed is not of the msg.sender\r\n    */\r\n    modifier verifyIssuer (address _address) { \r\n        require (_address != msg.sender, \"Skill owner cannot certify himself\");\r\n         _;\r\n        }\r\n    \r\n    /*\r\n        VerifyState to ensure state transitions are valid\r\n        @param skill identifier\r\n        @param current state before execution\r\n    */\r\n    modifier verifyState(uint256 _skillId, State _state) {\r\n        require(skill[_skillId].state == _state, \"Invalid state transition\");\r\n        _;\r\n    }\r\n\r\n    /*\r\n        Load UserRegister's deployed address to create a contract instance and initialize skill identifer \r\n        @param userRegister contract deployed address\r\n    */\r\n    constructor(address userRegisterAddress) public{\r\n        owner = msg.sender;\r\n        skillId = 0;\r\n        userRegisterContract = UserRegister(userRegisterAddress);\r\n    }\r\n\r\n    /*\r\n        @notice Create a new skill  \r\n        @param name of the skill\r\n        @param skill category\r\n        @return newly created Skill Identifier\r\n    */\r\n    function createSkill(string memory _skillName, Category _skillCategory) public returns(uint256){\r\n        emit skillCreated(skillId);\r\n        skill[skillId].id = skillId;\r\n        skill[skillId].name = _skillName;\r\n        skill[skillId].category = _skillCategory;\r\n        skill[skillId].skilledPerson = msg.sender;\r\n        skill[skillId].noOfValidations = 0;\r\n        skill[skillId].state = State.CREATED;\r\n        skillId = skillId + 1;\r\n        return skillId;\r\n    }\r\n\r\n    /*\r\n        @notice Certify a skill \r\n        @param skill identifier\r\n        @param skill rating\r\n        @param override skill category as applicable\r\n        @return skill certification status\r\n    */\r\n    function certifySkill(uint256 _skillId, uint8 _rating, Category _category) public verifyIssuer(skill[_skillId].skilledPerson) returns(bool) {\r\n        emit skillCertified(_skillId);\r\n        skill[_skillId].rating = _rating;\r\n        skill[_skillId].category = _category;\r\n        skill[_skillId].skillIssuers.push(msg.sender);\r\n        \r\n        if (skill[_skillId].state == State.CREATED) {\r\n            skill[_skillId].state = State.CERTIFIED;\r\n            userRegisterContract.setSkill(skill[_skillId].skilledPerson, _skillId);\r\n        } else {\r\n            skill[_skillId].state = State.RECERTIFIED;\r\n        }\r\n        return true;\r\n    }\r\n\r\n    /*\r\n        @notice Get list of Skill certifiers who have issued the skill certification\r\n        @param skill identifier\r\n        @return list of issuer addresses\r\n    */\r\n    function getSkillIssuers(uint256 _skillId) public view returns (address[] memory) {\r\n        address[] memory issuers = new address[](skill[_skillId].skillIssuers.length);\r\n\r\n        uint issuerIndex = 0;\r\n\r\n        for(uint i = 0; i < skill[_skillId].skillIssuers.length;  i++) {\r\n            issuers[issuerIndex] = skill[_skillId].skillIssuers[i];\r\n            issuerIndex++;\r\n        }\r\n        return issuers;\r\n    }\r\n\r\n}",
  "sourcePath": "/home/abharana/truffle-final-project/contracts/SkillEvaluation.sol",
  "compiler": {
    "name": "solc",
    "version": "0.6.2+commit.bacdbe57.Emscripten.clang"
  },
  "schemaVersion": "3.2.5",
  "updatedAt": "2020-12-14T19:15:20.596Z",
  "networkType": "ethereum",
  "devdoc": {
    "methods": {}
  },
  "userdoc": {
    "methods": {}
  }
}