{
  "contractName": "UserRegister",
  "abi": [
    {
      "inputs": [],
      "stateMutability": "nonpayable",
      "type": "constructor"
    },
    {
      "anonymous": false,
      "inputs": [
        {
          "indexed": true,
          "internalType": "address",
          "name": "previousOwner",
          "type": "address"
        },
        {
          "indexed": true,
          "internalType": "address",
          "name": "newOwner",
          "type": "address"
        }
      ],
      "name": "OwnershipTransferred",
      "type": "event"
    },
    {
      "anonymous": false,
      "inputs": [
        {
          "indexed": false,
          "internalType": "address",
          "name": "account",
          "type": "address"
        }
      ],
      "name": "Paused",
      "type": "event"
    },
    {
      "anonymous": false,
      "inputs": [
        {
          "indexed": true,
          "internalType": "bytes32",
          "name": "role",
          "type": "bytes32"
        },
        {
          "indexed": true,
          "internalType": "bytes32",
          "name": "previousAdminRole",
          "type": "bytes32"
        },
        {
          "indexed": true,
          "internalType": "bytes32",
          "name": "newAdminRole",
          "type": "bytes32"
        }
      ],
      "name": "RoleAdminChanged",
      "type": "event"
    },
    {
      "anonymous": false,
      "inputs": [
        {
          "indexed": true,
          "internalType": "bytes32",
          "name": "role",
          "type": "bytes32"
        },
        {
          "indexed": true,
          "internalType": "address",
          "name": "account",
          "type": "address"
        },
        {
          "indexed": true,
          "internalType": "address",
          "name": "sender",
          "type": "address"
        }
      ],
      "name": "RoleGranted",
      "type": "event"
    },
    {
      "anonymous": false,
      "inputs": [
        {
          "indexed": true,
          "internalType": "bytes32",
          "name": "role",
          "type": "bytes32"
        },
        {
          "indexed": true,
          "internalType": "address",
          "name": "account",
          "type": "address"
        },
        {
          "indexed": true,
          "internalType": "address",
          "name": "sender",
          "type": "address"
        }
      ],
      "name": "RoleRevoked",
      "type": "event"
    },
    {
      "anonymous": false,
      "inputs": [
        {
          "indexed": false,
          "internalType": "address",
          "name": "account",
          "type": "address"
        }
      ],
      "name": "Unpaused",
      "type": "event"
    },
    {
      "anonymous": false,
      "inputs": [
        {
          "indexed": true,
          "internalType": "address",
          "name": "_address",
          "type": "address"
        }
      ],
      "name": "userRegistered",
      "type": "event"
    },
    {
      "inputs": [],
      "name": "CAMPAIGNCREATOR_ROLE",
      "outputs": [
        {
          "internalType": "bytes32",
          "name": "",
          "type": "bytes32"
        }
      ],
      "stateMutability": "view",
      "type": "function",
      "constant": true
    },
    {
      "inputs": [],
      "name": "DEFAULT_ADMIN_ROLE",
      "outputs": [
        {
          "internalType": "bytes32",
          "name": "",
          "type": "bytes32"
        }
      ],
      "stateMutability": "view",
      "type": "function",
      "constant": true
    },
    {
      "inputs": [],
      "name": "SKILLCERTIFIER_ROLE",
      "outputs": [
        {
          "internalType": "bytes32",
          "name": "",
          "type": "bytes32"
        }
      ],
      "stateMutability": "view",
      "type": "function",
      "constant": true
    },
    {
      "inputs": [],
      "name": "SKILLCREATOR_ROLE",
      "outputs": [
        {
          "internalType": "bytes32",
          "name": "",
          "type": "bytes32"
        }
      ],
      "stateMutability": "view",
      "type": "function",
      "constant": true
    },
    {
      "inputs": [
        {
          "internalType": "bytes32",
          "name": "role",
          "type": "bytes32"
        }
      ],
      "name": "getRoleAdmin",
      "outputs": [
        {
          "internalType": "bytes32",
          "name": "",
          "type": "bytes32"
        }
      ],
      "stateMutability": "view",
      "type": "function",
      "constant": true
    },
    {
      "inputs": [
        {
          "internalType": "bytes32",
          "name": "role",
          "type": "bytes32"
        },
        {
          "internalType": "uint256",
          "name": "index",
          "type": "uint256"
        }
      ],
      "name": "getRoleMember",
      "outputs": [
        {
          "internalType": "address",
          "name": "",
          "type": "address"
        }
      ],
      "stateMutability": "view",
      "type": "function",
      "constant": true
    },
    {
      "inputs": [
        {
          "internalType": "bytes32",
          "name": "role",
          "type": "bytes32"
        }
      ],
      "name": "getRoleMemberCount",
      "outputs": [
        {
          "internalType": "uint256",
          "name": "",
          "type": "uint256"
        }
      ],
      "stateMutability": "view",
      "type": "function",
      "constant": true
    },
    {
      "inputs": [
        {
          "internalType": "bytes32",
          "name": "role",
          "type": "bytes32"
        },
        {
          "internalType": "address",
          "name": "account",
          "type": "address"
        }
      ],
      "name": "grantRole",
      "outputs": [],
      "stateMutability": "nonpayable",
      "type": "function"
    },
    {
      "inputs": [
        {
          "internalType": "bytes32",
          "name": "role",
          "type": "bytes32"
        },
        {
          "internalType": "address",
          "name": "account",
          "type": "address"
        }
      ],
      "name": "hasRole",
      "outputs": [
        {
          "internalType": "bool",
          "name": "",
          "type": "bool"
        }
      ],
      "stateMutability": "view",
      "type": "function",
      "constant": true
    },
    {
      "inputs": [],
      "name": "owner",
      "outputs": [
        {
          "internalType": "address",
          "name": "",
          "type": "address"
        }
      ],
      "stateMutability": "view",
      "type": "function",
      "constant": true
    },
    {
      "inputs": [],
      "name": "paused",
      "outputs": [
        {
          "internalType": "bool",
          "name": "",
          "type": "bool"
        }
      ],
      "stateMutability": "view",
      "type": "function",
      "constant": true
    },
    {
      "inputs": [
        {
          "internalType": "bytes32",
          "name": "role",
          "type": "bytes32"
        },
        {
          "internalType": "address",
          "name": "account",
          "type": "address"
        }
      ],
      "name": "renounceRole",
      "outputs": [],
      "stateMutability": "nonpayable",
      "type": "function"
    },
    {
      "inputs": [
        {
          "internalType": "bytes32",
          "name": "role",
          "type": "bytes32"
        },
        {
          "internalType": "address",
          "name": "account",
          "type": "address"
        }
      ],
      "name": "revokeRole",
      "outputs": [],
      "stateMutability": "nonpayable",
      "type": "function"
    },
    {
      "inputs": [
        {
          "internalType": "address",
          "name": "",
          "type": "address"
        }
      ],
      "name": "users",
      "outputs": [
        {
          "internalType": "string",
          "name": "name",
          "type": "string"
        },
        {
          "internalType": "bool",
          "name": "set",
          "type": "bool"
        }
      ],
      "stateMutability": "view",
      "type": "function",
      "constant": true
    },
    {
      "inputs": [],
      "name": "pauseContract",
      "outputs": [],
      "stateMutability": "nonpayable",
      "type": "function"
    },
    {
      "inputs": [],
      "name": "unPauseContract",
      "outputs": [],
      "stateMutability": "nonpayable",
      "type": "function"
    },
    {
      "inputs": [],
      "name": "renounceOwnership",
      "outputs": [],
      "stateMutability": "nonpayable",
      "type": "function"
    },
    {
      "inputs": [
        {
          "internalType": "address",
          "name": "newOwner",
          "type": "address"
        }
      ],
      "name": "transferOwnership",
      "outputs": [],
      "stateMutability": "nonpayable",
      "type": "function"
    },
    {
      "inputs": [
        {
          "internalType": "address",
          "name": "_userAddress",
          "type": "address"
        },
        {
          "internalType": "string",
          "name": "_userName",
          "type": "string"
        }
      ],
      "name": "registerUserAccount",
      "outputs": [
        {
          "internalType": "bool",
          "name": "success",
          "type": "bool"
        }
      ],
      "stateMutability": "nonpayable",
      "type": "function"
    },
    {
      "inputs": [
        {
          "internalType": "address",
          "name": "_userAddress",
          "type": "address"
        }
      ],
      "name": "getSkillCount",
      "outputs": [
        {
          "internalType": "uint256",
          "name": "",
          "type": "uint256"
        }
      ],
      "stateMutability": "view",
      "type": "function",
      "constant": true
    },
    {
      "inputs": [
        {
          "internalType": "address",
          "name": "_userAddress",
          "type": "address"
        }
      ],
      "name": "getUser",
      "outputs": [
        {
          "internalType": "string",
          "name": "",
          "type": "string"
        },
        {
          "internalType": "bool",
          "name": "",
          "type": "bool"
        }
      ],
      "stateMutability": "view",
      "type": "function",
      "constant": true
    },
    {
      "inputs": [
        {
          "internalType": "address",
          "name": "_userAddress",
          "type": "address"
        },
        {
          "internalType": "uint256",
          "name": "_skillId",
          "type": "uint256"
        }
      ],
      "name": "setSkill",
      "outputs": [
        {
          "internalType": "bool",
          "name": "",
          "type": "bool"
        }
      ],
      "stateMutability": "nonpayable",
      "type": "function"
    },
    {
      "inputs": [
        {
          "internalType": "address",
          "name": "_userAddress",
          "type": "address"
        }
      ],
      "name": "getUserSkills",
      "outputs": [
        {
          "internalType": "uint256[]",
          "name": "",
          "type": "uint256[]"
        }
      ],
      "stateMutability": "view",
      "type": "function",
      "constant": true
    }
  ],
  "bytecode": "0x60806040523480156200001157600080fd5b50600062000024620000f760201b60201c565b9050806000806101000a81548173ffffffffffffffffffffffffffffffffffffffff021916908373ffffffffffffffffffffffffffffffffffffffff1602179055508073ffffffffffffffffffffffffffffffffffffffff16600073ffffffffffffffffffffffffffffffffffffffff167f8be0079c531659141344cd1fd0a4f28419497f9722a3daafe3b4186f6b6457e060405160405180910390a35060008060146101000a81548160ff021916908315150217905550620000f16000801b33620000ff60201b60201c565b6200028e565b600033905090565b6200011182826200011560201b60201c565b5050565b620001448160016000858152602001908152602001600020600001620001b960201b620019e21790919060201c565b15620001b5576200015a620000f760201b60201c565b73ffffffffffffffffffffffffffffffffffffffff168173ffffffffffffffffffffffffffffffffffffffff16837f2f8788117e7eff1d82e926ec794901d17c78024a50270940304540a733656f0d60405160405180910390a45b5050565b6000620001e9836000018373ffffffffffffffffffffffffffffffffffffffff1660001b620001f160201b60201c565b905092915050565b60006200020583836200026b60201b60201c565b6200026057826000018290806001815401808255809150506001900390600052602060002001600090919091909150558260000180549050836001016000848152602001908152602001600020819055506001905062000265565b600090505b92915050565b600080836001016000848152602001908152602001600020541415905092915050565b611dff806200029e6000396000f3fe608060405234801561001057600080fd5b506004361061014d5760003560e01c80639010d07c116100c3578063ca30d0361161007c578063ca30d03614610739578063d2886ebc14610757578063d547741f146107f0578063d9646fda1461083e578063f2fde38b1461085c578063fb0fd799146108a05761014d565b80639010d07c1461052957806391d14854146105a1578063a217fddf14610607578063a87430ba14610625578063bac15203146106ed578063ca15c873146106f75761014d565b8063439766ce11610115578063439766ce1461037b5780635a9f36a5146103855780635c975abb146103eb5780636f77926b1461040d578063715018a6146104d55780638da5cb5b146104df5761014d565b8063248a9ca3146101525780632a808899146101945780632f2ff15d146101ec57806336568abe1461023a5780633d8d160114610288575b600080fd5b61017e6004803603602081101561016857600080fd5b81019080803590602001909291905050506108be565b6040518082815260200191505060405180910390f35b6101d6600480360360208110156101aa57600080fd5b81019080803573ffffffffffffffffffffffffffffffffffffffff1690602001909291905050506108de565b6040518082815260200191505060405180910390f35b6102386004803603604081101561020257600080fd5b8101908080359060200190929190803573ffffffffffffffffffffffffffffffffffffffff16906020019092919050505061092d565b005b6102866004803603604081101561025057600080fd5b8101908080359060200190929190803573ffffffffffffffffffffffffffffffffffffffff1690602001909291905050506109b7565b005b6103616004803603604081101561029e57600080fd5b81019080803573ffffffffffffffffffffffffffffffffffffffff169060200190929190803590602001906401000000008111156102db57600080fd5b8201836020820111156102ed57600080fd5b8035906020019184600183028401116401000000008311171561030f57600080fd5b91908080601f016020809104026020016040519081016040528093929190818152602001838380828437600081840152601f19601f820116905080830192505050505050509192919290505050610a50565b604051808215151515815260200191505060405180910390f35b610383610c7f565b005b6103d16004803603604081101561039b57600080fd5b81019080803573ffffffffffffffffffffffffffffffffffffffff16906020019092919080359060200190929190505050610d52565b604051808215151515815260200191505060405180910390f35b6103f3610e6b565b604051808215151515815260200191505060405180910390f35b61044f6004803603602081101561042357600080fd5b81019080803573ffffffffffffffffffffffffffffffffffffffff169060200190929190505050610e81565b604051808060200183151515158152602001828103825284818151815260200191508051906020019080838360005b8381101561049957808201518184015260208101905061047e565b50505050905090810190601f1680156104c65780820380516001836020036101000a031916815260200191505b50935050505060405180910390f35b6104dd610fbc565b005b6104e7611087565b604051808273ffffffffffffffffffffffffffffffffffffffff1673ffffffffffffffffffffffffffffffffffffffff16815260200191505060405180910390f35b61055f6004803603604081101561053f57600080fd5b8101908080359060200190929190803590602001909291905050506110b0565b604051808273ffffffffffffffffffffffffffffffffffffffff1673ffffffffffffffffffffffffffffffffffffffff16815260200191505060405180910390f35b6105ed600480360360408110156105b757600080fd5b8101908080359060200190929190803573ffffffffffffffffffffffffffffffffffffffff1690602001909291905050506110e2565b604051808215151515815260200191505060405180910390f35b61060f611114565b6040518082815260200191505060405180910390f35b6106676004803603602081101561063b57600080fd5b81019080803573ffffffffffffffffffffffffffffffffffffffff16906020019092919050505061111b565b604051808060200183151515158152602001828103825284818151815260200191508051906020019080838360005b838110156106b1578082015181840152602081019050610696565b50505050905090810190601f1680156106de5780820380516001836020036101000a031916815260200191505b50935050505060405180910390f35b6106f56111e4565b005b6107236004803603602081101561070d57600080fd5b81019080803590602001909291905050506112b7565b6040518082815260200191505060405180910390f35b6107416112de565b6040518082815260200191505060405180910390f35b6107996004803603602081101561076d57600080fd5b81019080803573ffffffffffffffffffffffffffffffffffffffff169060200190929190505050611317565b6040518080602001828103825283818151815260200191508051906020019060200280838360005b838110156107dc5780820151818401526020810190506107c1565b505050509050019250505060405180910390f35b61083c6004803603604081101561080657600080fd5b8101908080359060200190929190803573ffffffffffffffffffffffffffffffffffffffff169060200190929190505050611479565b005b610846611503565b6040518082815260200191505060405180910390f35b61089e6004803603602081101561087257600080fd5b81019080803573ffffffffffffffffffffffffffffffffffffffff16906020019092919050505061153c565b005b6108a8611608565b6040518082815260200191505060405180910390f35b600060016000838152602001908152602001600020600201549050919050565b6000600260008373ffffffffffffffffffffffffffffffffffffffff1673ffffffffffffffffffffffffffffffffffffffff168152602001908152602001600020600201805490509050919050565b610954600160008481526020019081526020016000206002015461094f611641565b6110e2565b6109a9576040517f08c379a000000000000000000000000000000000000000000000000000000000815260040180806020018281038252602f815260200180611d19602f913960400191505060405180910390fd5b6109b38282611649565b5050565b6109bf611641565b73ffffffffffffffffffffffffffffffffffffffff168173ffffffffffffffffffffffffffffffffffffffff1614610a42576040517f08c379a000000000000000000000000000000000000000000000000000000000815260040180806020018281038252602f815260200180611d9b602f913960400191505060405180910390fd5b610a4c82826116dd565b5050565b60008060149054906101000a900460ff1615610ad4576040517f08c379a00000000000000000000000000000000000000000000000000000000081526004018080602001828103825260108152602001807f5061757361626c653a207061757365640000000000000000000000000000000081525060200191505060405180910390fd5b6000600260008573ffffffffffffffffffffffffffffffffffffffff1673ffffffffffffffffffffffffffffffffffffffff16815260200190815260200160002090508060010160009054906101000a900460ff1615610b7f576040517f08c379a0000000000000000000000000000000000000000000000000000000008152600401808060200182810382526023815260200180611d786023913960400191505060405180910390fd5b82600260008673ffffffffffffffffffffffffffffffffffffffff1673ffffffffffffffffffffffffffffffffffffffff1681526020019081526020016000206000019080519060200190610bd5929190611c51565b506001600260008673ffffffffffffffffffffffffffffffffffffffff1673ffffffffffffffffffffffffffffffffffffffff16815260200190815260200160002060010160006101000a81548160ff0219169083151502179055508373ffffffffffffffffffffffffffffffffffffffff167fbccbc36cc6dac185f9905c12b69a310c4d0b82bdfbc3bbbb8e3d2ff33c8176b060405160405180910390a2600191505092915050565b610c87611641565b73ffffffffffffffffffffffffffffffffffffffff166000809054906101000a900473ffffffffffffffffffffffffffffffffffffffff1673ffffffffffffffffffffffffffffffffffffffff1614610d48576040517f08c379a00000000000000000000000000000000000000000000000000000000081526004018080602001828103825260208152602001807f4f776e61626c653a2063616c6c6572206973206e6f7420746865206f776e657281525060200191505060405180910390fd5b610d50611771565b565b6000823373ffffffffffffffffffffffffffffffffffffffff168173ffffffffffffffffffffffffffffffffffffffff161415610df7576040517f08c379a000000000000000000000000000000000000000000000000000000000815260040180806020018281038252601d8152602001807f536b696c6c206f776e65722063616e6e6f742061646420736b696c6c7300000081525060200191505060405180910390fd5b600260008573ffffffffffffffffffffffffffffffffffffffff1673ffffffffffffffffffffffffffffffffffffffff168152602001908152602001600020600201839080600181540180825580915050600190039060005260206000200160009091909190915055600191505092915050565b60008060149054906101000a900460ff16905090565b60606000600260008473ffffffffffffffffffffffffffffffffffffffff1673ffffffffffffffffffffffffffffffffffffffff168152602001908152602001600020600001600260008573ffffffffffffffffffffffffffffffffffffffff1673ffffffffffffffffffffffffffffffffffffffff16815260200190815260200160002060010160009054906101000a900460ff16818054600181600116156101000203166002900480601f016020809104026020016040519081016040528092919081815260200182805460018160011615610100020316600290048015610fac5780601f10610f8157610100808354040283529160200191610fac565b820191906000526020600020905b815481529060010190602001808311610f8f57829003601f168201915b5050505050915091509150915091565b610fc4611641565b73ffffffffffffffffffffffffffffffffffffffff166000809054906101000a900473ffffffffffffffffffffffffffffffffffffffff1673ffffffffffffffffffffffffffffffffffffffff1614611085576040517f08c379a00000000000000000000000000000000000000000000000000000000081526004018080602001828103825260208152602001807f4f776e61626c653a2063616c6c6572206973206e6f7420746865206f776e657281525060200191505060405180910390fd5b565b60008060009054906101000a900473ffffffffffffffffffffffffffffffffffffffff16905090565b60006110da826001600086815260200190815260200160002060000161187b90919063ffffffff16565b905092915050565b600061110c826001600086815260200190815260200160002060000161189590919063ffffffff16565b905092915050565b6000801b81565b6002602052806000526040600020600091509050806000018054600181600116156101000203166002900480601f0160208091040260200160405190810160405280929190818152602001828054600181600116156101000203166002900480156111c75780601f1061119c576101008083540402835291602001916111c7565b820191906000526020600020905b8154815290600101906020018083116111aa57829003601f168201915b5050505050908060010160009054906101000a900460ff16905082565b6111ec611641565b73ffffffffffffffffffffffffffffffffffffffff166000809054906101000a900473ffffffffffffffffffffffffffffffffffffffff1673ffffffffffffffffffffffffffffffffffffffff16146112ad576040517f08c379a00000000000000000000000000000000000000000000000000000000081526004018080602001828103825260208152602001807f4f776e61626c653a2063616c6c6572206973206e6f7420746865206f776e657281525060200191505060405180910390fd5b6112b56118c5565b565b60006112d7600160008481526020019081526020016000206000016119cd565b9050919050565b60405180807f534b494c4c43524541544f525f524f4c450000000000000000000000000000008152506011019050604051809103902081565b606080600260008473ffffffffffffffffffffffffffffffffffffffff1673ffffffffffffffffffffffffffffffffffffffff1681526020019081526020016000206002018054905060405190808252806020026020018201604052801561138e5781602001602082028038833980820191505090505b509050600080905060008090505b600260008673ffffffffffffffffffffffffffffffffffffffff1673ffffffffffffffffffffffffffffffffffffffff1681526020019081526020016000206002018054905081101561146e57600260008673ffffffffffffffffffffffffffffffffffffffff1673ffffffffffffffffffffffffffffffffffffffff168152602001908152602001600020600201818154811061143657fe5b906000526020600020015483838151811061144d57fe5b6020026020010181815250508180600101925050808060010191505061139c565b508192505050919050565b6114a0600160008481526020019081526020016000206002015461149b611641565b6110e2565b6114f5576040517f08c379a0000000000000000000000000000000000000000000000000000000008152600401808060200182810382526030815260200180611d486030913960400191505060405180910390fd5b6114ff82826116dd565b5050565b60405180807f43414d504149474e43524541544f525f524f4c450000000000000000000000008152506014019050604051809103902081565b611544611641565b73ffffffffffffffffffffffffffffffffffffffff166000809054906101000a900473ffffffffffffffffffffffffffffffffffffffff1673ffffffffffffffffffffffffffffffffffffffff1614611605576040517f08c379a00000000000000000000000000000000000000000000000000000000081526004018080602001828103825260208152602001807f4f776e61626c653a2063616c6c6572206973206e6f7420746865206f776e657281525060200191505060405180910390fd5b50565b60405180807f534b494c4c4345525449464945525f524f4c45000000000000000000000000008152506013019050604051809103902081565b600033905090565b61167181600160008581526020019081526020016000206000016119e290919063ffffffff16565b156116d95761167e611641565b73ffffffffffffffffffffffffffffffffffffffff168173ffffffffffffffffffffffffffffffffffffffff16837f2f8788117e7eff1d82e926ec794901d17c78024a50270940304540a733656f0d60405160405180910390a45b5050565b6117058160016000858152602001908152602001600020600001611a1290919063ffffffff16565b1561176d57611712611641565b73ffffffffffffffffffffffffffffffffffffffff168173ffffffffffffffffffffffffffffffffffffffff16837ff6391f5c32d9c69d2a47ea670b442974b53935d1edc7fd64eb21e047a839171b60405160405180910390a45b5050565b600060149054906101000a900460ff16156117f4576040517f08c379a00000000000000000000000000000000000000000000000000000000081526004018080602001828103825260108152602001807f5061757361626c653a207061757365640000000000000000000000000000000081525060200191505060405180910390fd5b6001600060146101000a81548160ff0219169083151502179055507f62e78cea01bee320cd4e420270b5ea74000d11b0c9f74754ebdbfc544b05a258611838611641565b604051808273ffffffffffffffffffffffffffffffffffffffff1673ffffffffffffffffffffffffffffffffffffffff16815260200191505060405180910390a1565b600061188a8360000183611a42565b60001c905092915050565b60006118bd836000018373ffffffffffffffffffffffffffffffffffffffff1660001b611ac5565b905092915050565b600060149054906101000a900460ff16611947576040517f08c379a00000000000000000000000000000000000000000000000000000000081526004018080602001828103825260148152602001807f5061757361626c653a206e6f742070617573656400000000000000000000000081525060200191505060405180910390fd5b60008060146101000a81548160ff0219169083151502179055507f5db9ee0a495bf2e6ff9c91a7834c1ba4fdd244a5e8aa4e537bd38aeae4b073aa61198a611641565b604051808273ffffffffffffffffffffffffffffffffffffffff1673ffffffffffffffffffffffffffffffffffffffff16815260200191505060405180910390a1565b60006119db82600001611ae8565b9050919050565b6000611a0a836000018373ffffffffffffffffffffffffffffffffffffffff1660001b611af9565b905092915050565b6000611a3a836000018373ffffffffffffffffffffffffffffffffffffffff1660001b611b69565b905092915050565b600081836000018054905011611aa3576040517f08c379a0000000000000000000000000000000000000000000000000000000008152600401808060200182810382526022815260200180611cf76022913960400191505060405180910390fd5b826000018281548110611ab257fe5b9060005260206000200154905092915050565b600080836001016000848152602001908152602001600020541415905092915050565b600081600001805490509050919050565b6000611b058383611ac5565b611b5e578260000182908060018154018082558091505060019003906000526020600020016000909190919091505582600001805490508360010160008481526020019081526020016000208190555060019050611b63565b600090505b92915050565b60008083600101600084815260200190815260200160002054905060008114611c455760006001820390506000600186600001805490500390506000866000018281548110611bb457fe5b9060005260206000200154905080876000018481548110611bd157fe5b9060005260206000200181905550600183018760010160008381526020019081526020016000208190555086600001805480611c0957fe5b60019003818190600052602060002001600090559055866001016000878152602001908152602001600020600090556001945050505050611c4b565b60009150505b92915050565b828054600181600116156101000203166002900490600052602060002090601f016020900481019282601f10611c9257805160ff1916838001178555611cc0565b82800160010185558215611cc0579182015b82811115611cbf578251825591602001919060010190611ca4565b5b509050611ccd9190611cd1565b5090565b611cf391905b80821115611cef576000816000905550600101611cd7565b5090565b9056fe456e756d657261626c655365743a20696e646578206f7574206f6620626f756e6473416363657373436f6e74726f6c3a2073656e646572206d75737420626520616e2061646d696e20746f206772616e74416363657373436f6e74726f6c3a2073656e646572206d75737420626520616e2061646d696e20746f207265766f6b655573657220686173206265656e20726567697374657265642070726576696f75736c79416363657373436f6e74726f6c3a2063616e206f6e6c792072656e6f756e636520726f6c657320666f722073656c66a2646970667358221220ae350c9cc85117de6cb1de690514ac9b62ac29896e246c5140c7b8b742359f4c64736f6c63430006020033",
  "source": "// SPDX-License-Identifier: GPL-3.0\r\npragma solidity >=0.6.0;\r\n\r\n/* \r\n    Import Ownable, AccessControl and Pausable from the OpenZeppelin Contracts library\r\n*/\r\nimport \"@openzeppelin/contracts/access/Ownable.sol\";\r\nimport \"@openzeppelin/contracts/access/AccessControl.sol\";\r\nimport \"@openzeppelin/contracts/utils/Pausable.sol\";\r\n\r\n/* \r\n    @title A Register containing all Application Users\r\n    @author ab64dev\r\n    @notice Associate a name and skill details to an ethereum account\r\n    @dev All function calls are currently implemented without side effects\r\n*/\r\ncontract UserRegister is Ownable, Pausable, AccessControl {\r\n    \r\n    /* \r\n        Roles that will be assigned to users of the application. \r\n    */\r\n    bytes32 public constant SKILLCREATOR_ROLE = keccak256(\"SKILLCREATOR_ROLE\");\r\n    bytes32 public constant SKILLCERTIFIER_ROLE = keccak256(\"SKILLCERTIFIER_ROLE\");\r\n    bytes32 public constant CAMPAIGNCREATOR_ROLE = keccak256(\"CAMPAIGNCREATOR_ROLE\");\r\n\r\n    /*\r\n        Grant the contract deployer the default admin role: it will be able to grant and revoke any roles\r\n    */\r\n    constructor() public {\r\n        _setupRole(DEFAULT_ADMIN_ROLE, msg.sender);\r\n    }\r\n\r\n    /*\r\n        User objet\r\n        stores name, registeredFlag(set) and user's skills\r\n    */\r\n\tstruct User {\r\n        string name;\r\n        bool set;\r\n        uint256[] skills;\r\n    }\r\n    \r\n    /*\r\n        List of users registered with the application\r\n    */\r\n    mapping (address => User) public users;\r\n\r\n    /* \r\n        Create event to publish users registration with the application.\r\n    */\r\n    event userRegistered (address indexed _address);\r\n\r\n    /*\r\n        VerifyCaller should require that the address passed is not of the msg.sender\r\n    */\r\n    modifier verifyCaller (address _address) { \r\n        require (_address != msg.sender, \"Skill owner cannot add skills\");\r\n         _;\r\n        }\r\n\r\n    /* \r\n        @notice function can be called only by the owner to pause the contract execution.\r\n    */\r\n    function pauseContract() public onlyOwner {\r\n        Pausable._pause();\r\n    }\r\n\r\n    /* \r\n        @notice function can be called only by the owner to unPause the contract execution.\r\n    */\r\n    function unPauseContract() public onlyOwner {\r\n        Pausable._unpause();\r\n    }\r\n\r\n    /* \r\n        @notice function has been overriden to not allow Owner to renounce Ownership.\r\n        @dev overrides inherited functionality to do nothing\r\n    */\r\n    function renounceOwnership() public override onlyOwner {}\r\n\r\n    /* \r\n        @notice function has been overriden to not allow Owner to transfer Ownership.\r\n        @dev overrides inherited functionality to do nothing\r\n    */\r\n    function transferOwnership(address newOwner) public override onlyOwner {}\r\n\r\n    /* \r\n        @notice Associate a user name to an ethereum account\r\n        @param ethereum account address\r\n        @param user Name\r\n        @return flag indicating transaction status\r\n    */\r\n\tfunction registerUserAccount(address _userAddress, string memory _userName) whenNotPaused public returns (bool success){\r\n        User storage user = users[_userAddress];\r\n        // Check that the user has not registered previously:\r\n        require(!user.set, \"User has been registered previously\");\r\n        \r\n        //Store the user details\r\n        users[_userAddress].name = _userName;\r\n        users[_userAddress].set = true;\r\n        emit userRegistered (_userAddress);\r\n        return true;\r\n    }\r\n\r\n    /* \r\n        @notice Get the number of skills for user \r\n        @param ethereum account address\r\n        @return number of skills\r\n    */\r\n    function getSkillCount(address _userAddress) public view returns (uint) {\r\n        return users[_userAddress].skills.length;\r\n    }\r\n    \r\n    /* \r\n        @notice Get user details\r\n        @param ethereum account address\r\n        @return Name of the user and Registration status.\r\n    */\r\n    function getUser(address _userAddress) public view returns (string memory, bool) {\r\n        return (users[_userAddress].name, users[_userAddress].set);\r\n    }\r\n\r\n     /* \r\n        @notice Assign a skill to a user account.\r\n        @param ethereum account address\r\n        @param Skill Identifier\r\n        @return status of the transaction.\r\n    */\r\n    function setSkill(address _userAddress, uint256 _skillId) public verifyCaller(_userAddress) returns (bool) {\r\n        users[_userAddress].skills.push(_skillId);\r\n        return true;\r\n    }\r\n\r\n     /* \r\n        @notice get all skill details that are associated with the user account.\r\n        @param ethereum account address\r\n        @return a list if Skill identifiers\r\n    */\r\n    function getUserSkills(address _userAddress) public view returns (uint[] memory) {\r\n        uint[] memory skills = new uint[](users[_userAddress].skills.length);\r\n\r\n        uint skillIndex = 0;\r\n\r\n        for(uint i = 0; i < users[_userAddress].skills.length;  i++) {\r\n            skills[skillIndex] = users[_userAddress].skills[i];\r\n            skillIndex++;\r\n        }\r\n        return skills;\r\n    }\r\n\r\n}",
  "sourcePath": "/home/abharana/truffle-final-project/contracts/UserRegister.sol",
  "compiler": {
    "name": "solc",
    "version": "0.6.2+commit.bacdbe57.Emscripten.clang"
  },
  "schemaVersion": "3.2.5",
  "updatedAt": "2020-12-14T19:15:20.585Z",
  "networkType": "ethereum",
  "devdoc": {
    "methods": {
      "getRoleAdmin(bytes32)": {
        "details": "Returns the admin role that controls `role`. See {grantRole} and {revokeRole}.     * To change a role's admin, use {_setRoleAdmin}."
      },
      "getRoleMember(bytes32,uint256)": {
        "details": "Returns one of the accounts that have `role`. `index` must be a value between 0 and {getRoleMemberCount}, non-inclusive.     * Role bearers are not sorted in any particular way, and their ordering may change at any point.     * WARNING: When using {getRoleMember} and {getRoleMemberCount}, make sure you perform all queries on the same block. See the following https://forum.openzeppelin.com/t/iterating-over-elements-on-enumerableset-in-openzeppelin-contracts/2296[forum post] for more information."
      },
      "getRoleMemberCount(bytes32)": {
        "details": "Returns the number of accounts that have `role`. Can be used together with {getRoleMember} to enumerate all bearers of a role."
      },
      "grantRole(bytes32,address)": {
        "details": "Grants `role` to `account`.     * If `account` had not been already granted `role`, emits a {RoleGranted} event.     * Requirements:     * - the caller must have ``role``'s admin role."
      },
      "hasRole(bytes32,address)": {
        "details": "Returns `true` if `account` has been granted `role`."
      },
      "owner()": {
        "details": "Returns the address of the current owner."
      },
      "paused()": {
        "details": "Returns true if the contract is paused, and false otherwise."
      },
      "renounceRole(bytes32,address)": {
        "details": "Revokes `role` from the calling account.     * Roles are often managed via {grantRole} and {revokeRole}: this function's purpose is to provide a mechanism for accounts to lose their privileges if they are compromised (such as when a trusted device is misplaced).     * If the calling account had been granted `role`, emits a {RoleRevoked} event.     * Requirements:     * - the caller must be `account`."
      },
      "revokeRole(bytes32,address)": {
        "details": "Revokes `role` from `account`.     * If `account` had been granted `role`, emits a {RoleRevoked} event.     * Requirements:     * - the caller must have ``role``'s admin role."
      }
    }
  },
  "userdoc": {
    "methods": {}
  }
}